{
  "contractName": "charity",
  "abi": [
    {
      "constant": false,
      "inputs": [
        {
          "name": "donation_amount",
          "type": "uint256"
        }
      ],
      "name": "get_donation_details",
      "outputs": [
        {
          "name": "",
          "type": "string"
        }
      ],
      "payable": false,
      "stateMutability": "nonpayable",
      "type": "function"
    },
    {
      "constant": false,
      "inputs": [],
      "name": "donation_message",
      "outputs": [
        {
          "name": "",
          "type": "string"
        }
      ],
      "payable": false,
      "stateMutability": "nonpayable",
      "type": "function"
    }
  ],
  "bytecode": "0x608060405234801561001057600080fd5b506102e0806100206000396000f30060806040526004361061004c576000357c0100000000000000000000000000000000000000000000000000000000900463ffffffff1680634476781f14610051578063df06504b146100e1575b600080fd5b34801561005d57600080fd5b50610066610187565b6040518080602001828103825283818151815260200191508051906020019080838360005b838110156100a657808201518184015260208101905061008b565b50505050905090810190601f1680156100d35780820380516001836020036101000a031916815260200191505b509250505060405180910390f35b3480156100ed57600080fd5b5061010c600480360381019080803590602001909291905050506101c4565b6040518080602001828103825283818151815260200191508051906020019080838360005b8381101561014c578082015181840152602081019050610131565b50505050905090810190601f1680156101795780820380516001836020036101000a031916815260200191505b509250505060405180910390f35b60606040805190810160405280601b81526020017f57656c636f6d6520746f20746865204368617269747920446170700000000000815250905090565b606060008211156102715761138882111515610217576040805190810160405280600c81526020017f53696c76657220436c617373000000000000000000000000000000000000000081525090506102af565b6113888211801561022a57506127108211155b1561026c576040805190810160405280600a81526020017f476f6c6420436c6173730000000000000000000000000000000000000000000081525090506102af565b6102ae565b6040805190810160405280600e81526020017f496e76616c696420416d6f756e7400000000000000000000000000000000000081525090506102af565b5b9190505600a165627a7a7230582012de459c12c8cce33f89ca9cf184d13ef9830ad1fd09fd1fc78a0304d767bad10029",
  "source": "pragma solidity ^0.4.0;\n\ncontract charity{\n    \n function get_donation_details(uint donation_amount) public returns (string){   \n     if (donation_amount > 0){\n         if (donation_amount <= 5000){\n             return 'Silver Class';\n         }\n         \n         if (donation_amount > 5000 && donation_amount <= 10000){\n             return 'Gold Class';\n         }\n     }\n     else{\n        return 'Invalid Amount';\n     }\n }\n \nfunction donation_message() public returns (string){\n    return 'Welcome to the Charity Dapp';\n} \n}",
  "sourcePath": "C:\\Malar\\MalarStudy\\Dapp\\angular-truffle-charity-dapp-master\\angular-truffle-charity-dapp-master\\contracts\\charity.sol",
  "compiler": {
    "name": "solc",
    "version": "0.4.24+commit.e67f0147.Emscripten.clang"
  },
  "schemaVersion": "2.0.1",
  "updatedAt": "2018-08-03T11:34:59.923Z"
}